{
  "_format": "hh-sol-artifact-1",
  "contractName": "BorrowYourCar",
  "sourceName": "contracts/BorrowYourCar.sol",
  "abi": [
    {
      "inputs": [
        {
          "internalType": "address",
          "name": "tokenAddress",
          "type": "address"
        }
      ],
      "stateMutability": "nonpayable",
      "type": "constructor"
    },
    {
      "inputs": [
        {
          "internalType": "address",
          "name": "sender",
          "type": "address"
        },
        {
          "internalType": "uint256",
          "name": "tokenId",
          "type": "uint256"
        },
        {
          "internalType": "address",
          "name": "owner",
          "type": "address"
        }
      ],
      "name": "ERC721IncorrectOwner",
      "type": "error"
    },
    {
      "inputs": [
        {
          "internalType": "address",
          "name": "operator",
          "type": "address"
        },
        {
          "internalType": "uint256",
          "name": "tokenId",
          "type": "uint256"
        }
      ],
      "name": "ERC721InsufficientApproval",
      "type": "error"
    },
    {
      "inputs": [
        {
          "internalType": "address",
          "name": "approver",
          "type": "address"
        }
      ],
      "name": "ERC721InvalidApprover",
      "type": "error"
    },
    {
      "inputs": [
        {
          "internalType": "address",
          "name": "operator",
          "type": "address"
        }
      ],
      "name": "ERC721InvalidOperator",
      "type": "error"
    },
    {
      "inputs": [
        {
          "internalType": "address",
          "name": "owner",
          "type": "address"
        }
      ],
      "name": "ERC721InvalidOwner",
      "type": "error"
    },
    {
      "inputs": [
        {
          "internalType": "address",
          "name": "receiver",
          "type": "address"
        }
      ],
      "name": "ERC721InvalidReceiver",
      "type": "error"
    },
    {
      "inputs": [
        {
          "internalType": "address",
          "name": "sender",
          "type": "address"
        }
      ],
      "name": "ERC721InvalidSender",
      "type": "error"
    },
    {
      "inputs": [
        {
          "internalType": "uint256",
          "name": "tokenId",
          "type": "uint256"
        }
      ],
      "name": "ERC721NonexistentToken",
      "type": "error"
    },
    {
      "anonymous": false,
      "inputs": [
        {
          "indexed": true,
          "internalType": "address",
          "name": "owner",
          "type": "address"
        },
        {
          "indexed": true,
          "internalType": "address",
          "name": "approved",
          "type": "address"
        },
        {
          "indexed": true,
          "internalType": "uint256",
          "name": "tokenId",
          "type": "uint256"
        }
      ],
      "name": "Approval",
      "type": "event"
    },
    {
      "anonymous": false,
      "inputs": [
        {
          "indexed": true,
          "internalType": "address",
          "name": "owner",
          "type": "address"
        },
        {
          "indexed": true,
          "internalType": "address",
          "name": "operator",
          "type": "address"
        },
        {
          "indexed": false,
          "internalType": "bool",
          "name": "approved",
          "type": "bool"
        }
      ],
      "name": "ApprovalForAll",
      "type": "event"
    },
    {
      "anonymous": false,
      "inputs": [
        {
          "indexed": false,
          "internalType": "uint256",
          "name": "index",
          "type": "uint256"
        },
        {
          "indexed": false,
          "internalType": "address",
          "name": "borrower",
          "type": "address"
        },
        {
          "indexed": false,
          "internalType": "uint256",
          "name": "startTime",
          "type": "uint256"
        },
        {
          "indexed": false,
          "internalType": "uint256",
          "name": "duration",
          "type": "uint256"
        }
      ],
      "name": "CarBorrowed",
      "type": "event"
    },
    {
      "anonymous": false,
      "inputs": [
        {
          "indexed": false,
          "internalType": "uint256",
          "name": "index",
          "type": "uint256"
        }
      ],
      "name": "CarReturned",
      "type": "event"
    },
    {
      "anonymous": false,
      "inputs": [
        {
          "indexed": true,
          "internalType": "address",
          "name": "from",
          "type": "address"
        },
        {
          "indexed": true,
          "internalType": "address",
          "name": "to",
          "type": "address"
        },
        {
          "indexed": true,
          "internalType": "uint256",
          "name": "tokenId",
          "type": "uint256"
        }
      ],
      "name": "Transfer",
      "type": "event"
    },
    {
      "inputs": [
        {
          "internalType": "uint256",
          "name": "",
          "type": "uint256"
        }
      ],
      "name": "BorrowedCars",
      "outputs": [
        {
          "internalType": "uint256",
          "name": "",
          "type": "uint256"
        }
      ],
      "stateMutability": "view",
      "type": "function"
    },
    {
      "inputs": [
        {
          "internalType": "uint256",
          "name": "",
          "type": "uint256"
        }
      ],
      "name": "ReturnedCars",
      "outputs": [
        {
          "internalType": "uint256",
          "name": "",
          "type": "uint256"
        }
      ],
      "stateMutability": "view",
      "type": "function"
    },
    {
      "inputs": [
        {
          "internalType": "address",
          "name": "to",
          "type": "address"
        },
        {
          "internalType": "uint256",
          "name": "tokenId",
          "type": "uint256"
        }
      ],
      "name": "approve",
      "outputs": [],
      "stateMutability": "nonpayable",
      "type": "function"
    },
    {
      "inputs": [
        {
          "internalType": "address",
          "name": "owner",
          "type": "address"
        }
      ],
      "name": "balanceOf",
      "outputs": [
        {
          "internalType": "uint256",
          "name": "",
          "type": "uint256"
        }
      ],
      "stateMutability": "view",
      "type": "function"
    },
    {
      "inputs": [
        {
          "internalType": "uint256",
          "name": "index",
          "type": "uint256"
        },
        {
          "internalType": "uint256",
          "name": "duration",
          "type": "uint256"
        }
      ],
      "name": "borrowCar",
      "outputs": [],
      "stateMutability": "nonpayable",
      "type": "function"
    },
    {
      "inputs": [
        {
          "internalType": "uint256",
          "name": "",
          "type": "uint256"
        }
      ],
      "name": "cars",
      "outputs": [
        {
          "internalType": "address",
          "name": "owner",
          "type": "address"
        },
        {
          "internalType": "address",
          "name": "borrower",
          "type": "address"
        },
        {
          "internalType": "uint256",
          "name": "borrowUntil",
          "type": "uint256"
        },
        {
          "internalType": "bool",
          "name": "isBorrowed",
          "type": "bool"
        }
      ],
      "stateMutability": "view",
      "type": "function"
    },
    {
      "inputs": [],
      "name": "createCar",
      "outputs": [],
      "stateMutability": "nonpayable",
      "type": "function"
    },
    {
      "inputs": [],
      "name": "createGeo",
      "outputs": [],
      "stateMutability": "nonpayable",
      "type": "function"
    },
    {
      "inputs": [
        {
          "internalType": "uint256",
          "name": "index",
          "type": "uint256"
        }
      ],
      "name": "deleteAvailableCar",
      "outputs": [],
      "stateMutability": "nonpayable",
      "type": "function"
    },
    {
      "inputs": [
        {
          "internalType": "uint256",
          "name": "index",
          "type": "uint256"
        }
      ],
      "name": "deleteCar",
      "outputs": [],
      "stateMutability": "nonpayable",
      "type": "function"
    },
    {
      "inputs": [],
      "name": "geo",
      "outputs": [
        {
          "internalType": "contract Geo",
          "name": "",
          "type": "address"
        }
      ],
      "stateMutability": "view",
      "type": "function"
    },
    {
      "inputs": [
        {
          "internalType": "uint256",
          "name": "tokenId",
          "type": "uint256"
        }
      ],
      "name": "getApproved",
      "outputs": [
        {
          "internalType": "address",
          "name": "",
          "type": "address"
        }
      ],
      "stateMutability": "view",
      "type": "function"
    },
    {
      "inputs": [],
      "name": "helloworld",
      "outputs": [
        {
          "internalType": "string",
          "name": "",
          "type": "string"
        }
      ],
      "stateMutability": "pure",
      "type": "function"
    },
    {
      "inputs": [
        {
          "internalType": "address",
          "name": "owner",
          "type": "address"
        },
        {
          "internalType": "address",
          "name": "operator",
          "type": "address"
        }
      ],
      "name": "isApprovedForAll",
      "outputs": [
        {
          "internalType": "bool",
          "name": "",
          "type": "bool"
        }
      ],
      "stateMutability": "view",
      "type": "function"
    },
    {
      "inputs": [],
      "name": "name",
      "outputs": [
        {
          "internalType": "string",
          "name": "",
          "type": "string"
        }
      ],
      "stateMutability": "view",
      "type": "function"
    },
    {
      "inputs": [
        {
          "internalType": "uint256",
          "name": "tokenId",
          "type": "uint256"
        }
      ],
      "name": "ownerOf",
      "outputs": [
        {
          "internalType": "address",
          "name": "",
          "type": "address"
        }
      ],
      "stateMutability": "view",
      "type": "function"
    },
    {
      "inputs": [
        {
          "internalType": "address",
          "name": "",
          "type": "address"
        },
        {
          "internalType": "uint256",
          "name": "",
          "type": "uint256"
        }
      ],
      "name": "ownerlist",
      "outputs": [
        {
          "internalType": "uint256",
          "name": "",
          "type": "uint256"
        }
      ],
      "stateMutability": "view",
      "type": "function"
    },
    {
      "inputs": [],
      "name": "queryAvailableCars",
      "outputs": [
        {
          "internalType": "uint256[]",
          "name": "",
          "type": "uint256[]"
        }
      ],
      "stateMutability": "view",
      "type": "function"
    },
    {
      "inputs": [],
      "name": "queryBalance",
      "outputs": [
        {
          "internalType": "uint256",
          "name": "",
          "type": "uint256"
        }
      ],
      "stateMutability": "view",
      "type": "function"
    },
    {
      "inputs": [],
      "name": "queryBorrowedCars",
      "outputs": [
        {
          "internalType": "uint256[]",
          "name": "",
          "type": "uint256[]"
        }
      ],
      "stateMutability": "view",
      "type": "function"
    },
    {
      "inputs": [
        {
          "internalType": "uint256",
          "name": "index",
          "type": "uint256"
        }
      ],
      "name": "queryBorrower",
      "outputs": [
        {
          "internalType": "address",
          "name": "",
          "type": "address"
        }
      ],
      "stateMutability": "view",
      "type": "function"
    },
    {
      "inputs": [
        {
          "internalType": "uint256",
          "name": "index",
          "type": "uint256"
        }
      ],
      "name": "queryOwner",
      "outputs": [
        {
          "internalType": "address",
          "name": "",
          "type": "address"
        }
      ],
      "stateMutability": "view",
      "type": "function"
    },
    {
      "inputs": [],
      "name": "queryOwnerCars",
      "outputs": [
        {
          "internalType": "uint256[]",
          "name": "",
          "type": "uint256[]"
        }
      ],
      "stateMutability": "view",
      "type": "function"
    },
    {
      "inputs": [
        {
          "internalType": "uint256",
          "name": "index",
          "type": "uint256"
        }
      ],
      "name": "returnCar",
      "outputs": [],
      "stateMutability": "nonpayable",
      "type": "function"
    },
    {
      "inputs": [
        {
          "internalType": "address",
          "name": "from",
          "type": "address"
        },
        {
          "internalType": "address",
          "name": "to",
          "type": "address"
        },
        {
          "internalType": "uint256",
          "name": "tokenId",
          "type": "uint256"
        }
      ],
      "name": "safeTransferFrom",
      "outputs": [],
      "stateMutability": "nonpayable",
      "type": "function"
    },
    {
      "inputs": [
        {
          "internalType": "address",
          "name": "from",
          "type": "address"
        },
        {
          "internalType": "address",
          "name": "to",
          "type": "address"
        },
        {
          "internalType": "uint256",
          "name": "tokenId",
          "type": "uint256"
        },
        {
          "internalType": "bytes",
          "name": "data",
          "type": "bytes"
        }
      ],
      "name": "safeTransferFrom",
      "outputs": [],
      "stateMutability": "nonpayable",
      "type": "function"
    },
    {
      "inputs": [
        {
          "internalType": "address",
          "name": "operator",
          "type": "address"
        },
        {
          "internalType": "bool",
          "name": "approved",
          "type": "bool"
        }
      ],
      "name": "setApprovalForAll",
      "outputs": [],
      "stateMutability": "nonpayable",
      "type": "function"
    },
    {
      "inputs": [
        {
          "internalType": "bytes4",
          "name": "interfaceId",
          "type": "bytes4"
        }
      ],
      "name": "supportsInterface",
      "outputs": [
        {
          "internalType": "bool",
          "name": "",
          "type": "bool"
        }
      ],
      "stateMutability": "view",
      "type": "function"
    },
    {
      "inputs": [],
      "name": "symbol",
      "outputs": [
        {
          "internalType": "string",
          "name": "",
          "type": "string"
        }
      ],
      "stateMutability": "view",
      "type": "function"
    },
    {
      "inputs": [
        {
          "internalType": "uint256",
          "name": "tokenId",
          "type": "uint256"
        }
      ],
      "name": "tokenURI",
      "outputs": [
        {
          "internalType": "string",
          "name": "",
          "type": "string"
        }
      ],
      "stateMutability": "view",
      "type": "function"
    },
    {
      "inputs": [
        {
          "internalType": "address",
          "name": "from",
          "type": "address"
        },
        {
          "internalType": "address",
          "name": "to",
          "type": "address"
        },
        {
          "internalType": "uint256",
          "name": "tokenId",
          "type": "uint256"
        }
      ],
      "name": "transferFrom",
      "outputs": [],
      "stateMutability": "nonpayable",
      "type": "function"
    },
    {
      "inputs": [],
      "name": "updateCar",
      "outputs": [],
      "stateMutability": "nonpayable",
      "type": "function"
    }
  ],
  "bytecode": "0x60806040523480156200001157600080fd5b5060405162003ce938038062003ce983398181016040528101906200003791906200017b565b6040518060400160405280600d81526020017f426f72726f77596f7572436172000000000000000000000000000000000000008152506040518060400160405280600481526020017f63617273000000000000000000000000000000000000000000000000000000008152508160009081620000b4919062000427565b508060019081620000c6919062000427565b50505080600a60006101000a81548173ffffffffffffffffffffffffffffffffffffffff021916908373ffffffffffffffffffffffffffffffffffffffff160217905550506200050e565b600080fd5b600073ffffffffffffffffffffffffffffffffffffffff82169050919050565b6000620001438262000116565b9050919050565b620001558162000136565b81146200016157600080fd5b50565b60008151905062000175816200014a565b92915050565b60006020828403121562000194576200019362000111565b5b6000620001a48482850162000164565b91505092915050565b600081519050919050565b7f4e487b7100000000000000000000000000000000000000000000000000000000600052604160045260246000fd5b7f4e487b7100000000000000000000000000000000000000000000000000000000600052602260045260246000fd5b600060028204905060018216806200022f57607f821691505b602082108103620002455762000244620001e7565b5b50919050565b60008190508160005260206000209050919050565b60006020601f8301049050919050565b600082821b905092915050565b600060088302620002af7fffffffffffffffffffffffffffffffffffffffffffffffffffffffffffffffff8262000270565b620002bb868362000270565b95508019841693508086168417925050509392505050565b6000819050919050565b6000819050919050565b60006200030862000302620002fc84620002d3565b620002dd565b620002d3565b9050919050565b6000819050919050565b6200032483620002e7565b6200033c62000333826200030f565b8484546200027d565b825550505050565b600090565b6200035362000344565b6200036081848462000319565b505050565b5b8181101562000388576200037c60008262000349565b60018101905062000366565b5050565b601f821115620003d757620003a1816200024b565b620003ac8462000260565b81016020851015620003bc578190505b620003d4620003cb8562000260565b83018262000365565b50505b505050565b600082821c905092915050565b6000620003fc60001984600802620003dc565b1980831691505092915050565b6000620004178383620003e9565b9150826002028217905092915050565b6200043282620001ad565b67ffffffffffffffff8111156200044e576200044d620001b8565b5b6200045a825462000216565b620004678282856200038c565b600060209050601f8311600181146200049f57600084156200048a578287015190505b62000496858262000409565b86555062000506565b601f198416620004af866200024b565b60005b82811015620004d957848901518255600182019150602085019450602081019050620004b2565b86831015620004f95784890151620004f5601f891682620003e9565b8355505b6001600288020188555050505b505050505050565b6137cb806200051e6000396000f3fe608060405234801561001057600080fd5b50600436106101f05760003560e01c806370a082311161010f578063c2df95a1116100a2578063e865af0411610071578063e865af04146105a7578063e985e9c5146105c3578063f7746e36146105f3578063fa6fb30e14610626576101f0565b8063c2df95a11461051f578063c87b56dd1461054f578063d944e6a31461057f578063e77100d41461059d576101f0565b8063a22cb465116100de578063a22cb46514610499578063af3be6e6146104b5578063b62ffd00146104e5578063b88d4fde14610503576101f0565b806370a08231146104115780637575d7811461044157806395d89b411461047157806396785e9c1461048f576101f0565b80632f2f48591161018757806342e14fc61161015657806342e14fc6146103655780635c4c91ab1461039557806360098088146103c55780636352211e146103e1576101f0565b80632f2f485914610303578063317feba81461032157806336f40c611461032b57806342842e0e14610349576101f0565b806317f956e0116101c357806317f956e01461028f5780631f35d635146102ab57806323b872dd146102c957806329e15dde146102e5576101f0565b806301ffc9a7146101f557806306fdde0314610225578063081812fc14610243578063095ea7b314610273575b600080fd5b61020f600480360381019061020a9190612986565b610642565b60405161021c91906129ce565b60405180910390f35b61022d610724565b60405161023a9190612a79565b60405180910390f35b61025d60048036038101906102589190612ad1565b6107b6565b60405161026a9190612b3f565b60405180910390f35b61028d60048036038101906102889190612b86565b6107d2565b005b6102a960048036038101906102a49190612ad1565b6107e8565b005b6102b36109a0565b6040516102c09190612c84565b60405180910390f35b6102e360048036038101906102de9190612ca6565b610a35565b005b6102ed610b37565b6040516102fa9190612c84565b60405180910390f35b61030b610b8f565b6040516103189190612a79565b60405180910390f35b610329610bcc565b005b610333610ce9565b6040516103409190612d08565b60405180910390f35b610363600480360381019061035e9190612ca6565b610d91565b005b61037f600480360381019061037a9190612ad1565b610db1565b60405161038c9190612b3f565b60405180910390f35b6103af60048036038101906103aa9190612b86565b610df6565b6040516103bc9190612d08565b60405180910390f35b6103df60048036038101906103da9190612ad1565b610e27565b005b6103fb60048036038101906103f69190612ad1565b610f57565b6040516104089190612b3f565b60405180910390f35b61042b60048036038101906104269190612d23565b610f69565b6040516104389190612d08565b60405180910390f35b61045b60048036038101906104569190612ad1565b611023565b6040516104689190612d08565b60405180910390f35b610479611047565b6040516104869190612a79565b60405180910390f35b6104976110d9565b005b6104b360048036038101906104ae9190612d7c565b611168565b005b6104cf60048036038101906104ca9190612ad1565b61117e565b6040516104dc9190612b3f565b60405180910390f35b6104ed6111e5565b6040516104fa9190612c84565b60405180910390f35b61051d60048036038101906105189190612ef1565b61123d565b005b61053960048036038101906105349190612ad1565b61125a565b6040516105469190612d08565b60405180910390f35b61056960048036038101906105649190612ad1565b61127e565b6040516105769190612a79565b60405180910390f35b6105876112e7565b6040516105949190612fd3565b60405180910390f35b6105a561130d565b005b6105c160048036038101906105bc9190612fee565b6114f6565b005b6105dd60048036038101906105d8919061302e565b611870565b6040516105ea91906129ce565b60405180910390f35b61060d60048036038101906106089190612ad1565b611904565b60405161061d949392919061306e565b60405180910390f35b610640600480360381019061063b9190612ad1565b611981565b005b60007f80ac58cd000000000000000000000000000000000000000000000000000000007bffffffffffffffffffffffffffffffffffffffffffffffffffffffff1916827bffffffffffffffffffffffffffffffffffffffffffffffffffffffff1916148061070d57507f5b5e139f000000000000000000000000000000000000000000000000000000007bffffffffffffffffffffffffffffffffffffffffffffffffffffffff1916827bffffffffffffffffffffffffffffffffffffffffffffffffffffffff1916145b8061071d575061071c82611adb565b5b9050919050565b606060008054610733906130e2565b80601f016020809104026020016040519081016040528092919081815260200182805461075f906130e2565b80156107ac5780601f10610781576101008083540402835291602001916107ac565b820191906000526020600020905b81548152906001019060200180831161078f57829003601f168201915b5050505050905090565b60006107c182611b45565b506107cb82611bcd565b9050919050565b6107e482826107df611c0a565b611c12565b5050565b3373ffffffffffffffffffffffffffffffffffffffff1661080882610db1565b73ffffffffffffffffffffffffffffffffffffffff160361085e576040517f08c379a00000000000000000000000000000000000000000000000000000000081526004016108559061315f565b60405180910390fd5b60006006600083815260200190815260200160002090508060030160009054906101000a900460ff166108c6576040517f08c379a00000000000000000000000000000000000000000000000000000000081526004016108bd906131cb565b60405180910390fd5b60008160030160006101000a81548160ff02191690831515021790555060008160010160006101000a81548173ffffffffffffffffffffffffffffffffffffffff021916908373ffffffffffffffffffffffffffffffffffffffff1602179055506000816002018190555061093c600883611c24565b60098290806001815401808255809150506001900390600052602060002001600090919091909150557fd9188e305dee9c23fa1cc9b07058ae9500862da7079cc5ba9df28045ae2f1d1e826040516109949190612d08565b60405180910390a15050565b6060600760003373ffffffffffffffffffffffffffffffffffffffff1673ffffffffffffffffffffffffffffffffffffffff168152602001908152602001600020805480602002602001604051908101604052809291908181526020018280548015610a2b57602002820191906000526020600020905b815481526020019060010190808311610a17575b5050505050905090565b600073ffffffffffffffffffffffffffffffffffffffff168273ffffffffffffffffffffffffffffffffffffffff1603610aa75760006040517f64a0ae92000000000000000000000000000000000000000000000000000000008152600401610a9e9190612b3f565b60405180910390fd5b6000610abb8383610ab6611c0a565b611ce8565b90508373ffffffffffffffffffffffffffffffffffffffff168173ffffffffffffffffffffffffffffffffffffffff1614610b31578382826040517f64283d7b000000000000000000000000000000000000000000000000000000008152600401610b28939291906131eb565b60405180910390fd5b50505050565b60606009805480602002602001604051908101604052809291908181526020018280548015610b8557602002820191906000526020600020905b815481526020019060010190808311610b71575b5050505050905090565b60606040518060400160405280600b81526020017f68656c6c6f20776f726c64000000000000000000000000000000000000000000815250905090565b60005b600880549050811015610ce657426006600060088481548110610bf557610bf4613222565b5b90600052602060002001548152602001908152602001600020600201541015610cd55760006006600060088481548110610c3257610c31613222565b5b9060005260206000200154815260200190815260200160002060030160006101000a81548160ff021916908315150217905550600960088281548110610c7b57610c7a613222565b5b90600052602060002001549080600181540180825580915050600190039060005260206000200160009091909190915055610cd46008808381548110610cc457610cc3613222565b5b9060005260206000200154611c24565b5b80610cdf90613280565b9050610bcf565b50565b600080600a60009054906101000a900473ffffffffffffffffffffffffffffffffffffffff1673ffffffffffffffffffffffffffffffffffffffff166370a08231336040518263ffffffff1660e01b8152600401610d479190612b3f565b602060405180830381865afa158015610d64573d6000803e3d6000fd5b505050506040513d601f19601f82011682018060405250810190610d8891906132dd565b90508091505090565b610dac8383836040518060200160405280600081525061123d565b505050565b6000806006600084815260200190815260200160002090508060000160009054906101000a900473ffffffffffffffffffffffffffffffffffffffff16915050919050565b60076020528160005260406000208181548110610e1257600080fd5b90600052602060002001600091509150505481565b600060066000838152602001908152602001600020905060066000838152602001908152602001600020600080820160006101000a81549073ffffffffffffffffffffffffffffffffffffffff02191690556001820160006101000a81549073ffffffffffffffffffffffffffffffffffffffff021916905560028201600090556003820160006101000a81549060ff021916905550506000610ec983610db1565b90506000600760008373ffffffffffffffffffffffffffffffffffffffff1673ffffffffffffffffffffffffffffffffffffffff1681526020019081526020016000209050610f188185611c24565b600115158360030160009054906101000a900460ff16151503610f4557610f40600885611c24565b610f51565b610f50600985611c24565b5b50505050565b6000610f6282611b45565b9050919050565b60008073ffffffffffffffffffffffffffffffffffffffff168273ffffffffffffffffffffffffffffffffffffffff1603610fdc5760006040517f89c62b64000000000000000000000000000000000000000000000000000000008152600401610fd39190612b3f565b60405180910390fd5b600360008373ffffffffffffffffffffffffffffffffffffffff1673ffffffffffffffffffffffffffffffffffffffff168152602001908152602001600020549050919050565b6008818154811061103357600080fd5b906000526020600020016000915090505481565b606060018054611056906130e2565b80601f0160208091040260200160405190810160405280929190818152602001828054611082906130e2565b80156110cf5780601f106110a4576101008083540402835291602001916110cf565b820191906000526020600020905b8154815290600101906020018083116110b257829003601f168201915b5050505050905090565b600a60009054906101000a900473ffffffffffffffffffffffffffffffffffffffff1673ffffffffffffffffffffffffffffffffffffffff16639ed93318336040518263ffffffff1660e01b81526004016111349190612b3f565b600060405180830381600087803b15801561114e57600080fd5b505af1158015611162573d6000803e3d6000fd5b50505050565b61117a611173611c0a565b8383611f02565b5050565b6000426006600084815260200190815260200160002060020154106111db576006600083815260200190815260200160002060010160009054906101000a900473ffffffffffffffffffffffffffffffffffffffff1690506111e0565b600090505b919050565b6060600880548060200260200160405190810160405280929190818152602001828054801561123357602002820191906000526020600020905b81548152602001906001019080831161121f575b5050505050905090565b611248848484610a35565b61125484848484612071565b50505050565b6009818154811061126a57600080fd5b906000526020600020016000915090505481565b606061128982611b45565b506000611294612228565b905060008151116112b457604051806020016040528060008152506112df565b806112be8461223f565b6040516020016112cf929190613346565b6040516020818303038152906040525b915050919050565b600a60009054906101000a900473ffffffffffffffffffffffffffffffffffffffff1681565b60006103e860014361131f919061336a565b4060001c61132d91906133cd565b4261133891906133fe565b9050611344338261230d565b60405180608001604052803373ffffffffffffffffffffffffffffffffffffffff168152602001600073ffffffffffffffffffffffffffffffffffffffff16815260200160008152602001600015158152506006600083815260200190815260200160002060008201518160000160006101000a81548173ffffffffffffffffffffffffffffffffffffffff021916908373ffffffffffffffffffffffffffffffffffffffff16021790555060208201518160010160006101000a81548173ffffffffffffffffffffffffffffffffffffffff021916908373ffffffffffffffffffffffffffffffffffffffff1602179055506040820151816002015560608201518160030160006101000a81548160ff021916908315150217905550905050600760003373ffffffffffffffffffffffffffffffffffffffff1673ffffffffffffffffffffffffffffffffffffffff168152602001908152602001600020819080600181540180825580915050600190039060005260206000200160009091909190915055600981908060018154018082558091505060019003906000526020600020016000909190919091505550565b3373ffffffffffffffffffffffffffffffffffffffff1661151683610db1565b73ffffffffffffffffffffffffffffffffffffffff160361156c576040517f08c379a00000000000000000000000000000000000000000000000000000000081526004016115639061315f565b60405180910390fd5b6000600660008481526020019081526020016000209050600115158160030160009054906101000a900460ff161515036115db576040517f08c379a00000000000000000000000000000000000000000000000000000000081526004016115d2906134a4565b60405180910390fd5b600082905080600a60009054906101000a900473ffffffffffffffffffffffffffffffffffffffff1673ffffffffffffffffffffffffffffffffffffffff166370a08231336040518263ffffffff1660e01b815260040161163c9190612b3f565b602060405180830381865afa158015611659573d6000803e3d6000fd5b505050506040513d601f19601f8201168201806040525081019061167d91906132dd565b10156116be576040517f08c379a00000000000000000000000000000000000000000000000000000000081526004016116b590613510565b60405180910390fd5b600a60009054906101000a900473ffffffffffffffffffffffffffffffffffffffff1673ffffffffffffffffffffffffffffffffffffffff166323b872dd338460000160009054906101000a900473ffffffffffffffffffffffffffffffffffffffff16846040518463ffffffff1660e01b815260040161174193929190613530565b6020604051808303816000875af1158015611760573d6000803e3d6000fd5b505050506040513d601f19601f82011682018060405250810190611784919061357c565b5060018260030160006101000a81548160ff021916908315150217905550338260010160006101000a81548173ffffffffffffffffffffffffffffffffffffffff021916908373ffffffffffffffffffffffffffffffffffffffff16021790555082426117f191906133fe565b8260020181905550611804600985611c24565b60088490806001815401808255809150506001900390600052602060002001600090919091909150557f8879d78706834dc00d82232992f71250fab6a1f70b08260968253950083d88cd8433428660405161186294939291906135a9565b60405180910390a150505050565b6000600560008473ffffffffffffffffffffffffffffffffffffffff1673ffffffffffffffffffffffffffffffffffffffff16815260200190815260200160002060008373ffffffffffffffffffffffffffffffffffffffff1673ffffffffffffffffffffffffffffffffffffffff16815260200190815260200160002060009054906101000a900460ff16905092915050565b60066020528060005260406000206000915090508060000160009054906101000a900473ffffffffffffffffffffffffffffffffffffffff16908060010160009054906101000a900473ffffffffffffffffffffffffffffffffffffffff16908060020154908060030160009054906101000a900460ff16905084565b6000600660008381526020019081526020016000209050600115158160030160009054906101000a900460ff161515036119f0576040517f08c379a00000000000000000000000000000000000000000000000000000000081526004016119e79061363a565b60405180910390fd5b60066000838152602001908152602001600020600080820160006101000a81549073ffffffffffffffffffffffffffffffffffffffff02191690556001820160006101000a81549073ffffffffffffffffffffffffffffffffffffffff021916905560028201600090556003820160006101000a81549060ff021916905550506000611a7b83610db1565b90506000600760008373ffffffffffffffffffffffffffffffffffffffff1673ffffffffffffffffffffffffffffffffffffffff1681526020019081526020016000209050611aca8185611c24565b611ad5600985611c24565b50505050565b60007f01ffc9a7000000000000000000000000000000000000000000000000000000007bffffffffffffffffffffffffffffffffffffffffffffffffffffffff1916827bffffffffffffffffffffffffffffffffffffffffffffffffffffffff1916149050919050565b600080611b518361232b565b9050600073ffffffffffffffffffffffffffffffffffffffff168173ffffffffffffffffffffffffffffffffffffffff1603611bc457826040517f7e273289000000000000000000000000000000000000000000000000000000008152600401611bbb9190612d08565b60405180910390fd5b80915050919050565b60006004600083815260200190815260200160002060009054906101000a900473ffffffffffffffffffffffffffffffffffffffff169050919050565b600033905090565b611c1f8383836001612368565b505050565b60005b8280549050811015611ce35781838281548110611c4757611c46613222565b5b906000526020600020015403611cd2578260018480549050611c69919061336a565b81548110611c7a57611c79613222565b5b9060005260206000200154838281548110611c9857611c97613222565b5b906000526020600020018190555082805480611cb757611cb661365a565b5b60019003818190600052602060002001600090559055611ce3565b80611cdc90613280565b9050611c27565b505050565b600080611cf48461232b565b9050600073ffffffffffffffffffffffffffffffffffffffff168373ffffffffffffffffffffffffffffffffffffffff1614611d3657611d3581848661252d565b5b600073ffffffffffffffffffffffffffffffffffffffff168173ffffffffffffffffffffffffffffffffffffffff1614611dc757611d78600085600080612368565b6001600360008373ffffffffffffffffffffffffffffffffffffffff1673ffffffffffffffffffffffffffffffffffffffff168152602001908152602001600020600082825403925050819055505b600073ffffffffffffffffffffffffffffffffffffffff168573ffffffffffffffffffffffffffffffffffffffff1614611e4a576001600360008773ffffffffffffffffffffffffffffffffffffffff1673ffffffffffffffffffffffffffffffffffffffff168152602001908152602001600020600082825401925050819055505b846002600086815260200190815260200160002060006101000a81548173ffffffffffffffffffffffffffffffffffffffff021916908373ffffffffffffffffffffffffffffffffffffffff160217905550838573ffffffffffffffffffffffffffffffffffffffff168273ffffffffffffffffffffffffffffffffffffffff167fddf252ad1be2c89b69c2b068fc378daa952ba7f163c4a11628f55a4df523b3ef60405160405180910390a4809150509392505050565b600073ffffffffffffffffffffffffffffffffffffffff168273ffffffffffffffffffffffffffffffffffffffff1603611f7357816040517f5b08ba18000000000000000000000000000000000000000000000000000000008152600401611f6a9190612b3f565b60405180910390fd5b80600560008573ffffffffffffffffffffffffffffffffffffffff1673ffffffffffffffffffffffffffffffffffffffff16815260200190815260200160002060008473ffffffffffffffffffffffffffffffffffffffff1673ffffffffffffffffffffffffffffffffffffffff16815260200190815260200160002060006101000a81548160ff0219169083151502179055508173ffffffffffffffffffffffffffffffffffffffff168373ffffffffffffffffffffffffffffffffffffffff167f17307eab39ab6107e8899845ad3d59bd9653f200f220920489ca2b5937696c318360405161206491906129ce565b60405180910390a3505050565b60008373ffffffffffffffffffffffffffffffffffffffff163b1115612222578273ffffffffffffffffffffffffffffffffffffffff1663150b7a026120b5611c0a565b8685856040518563ffffffff1660e01b81526004016120d794939291906136de565b6020604051808303816000875af192505050801561211357506040513d601f19601f82011682018060405250810190612110919061373f565b60015b612197573d8060008114612143576040519150601f19603f3d011682016040523d82523d6000602084013e612148565b606091505b50600081510361218f57836040517f64a0ae920000000000000000000000000000000000000000000000000000000081526004016121869190612b3f565b60405180910390fd5b805181602001fd5b63150b7a0260e01b7bffffffffffffffffffffffffffffffffffffffffffffffffffffffff1916817bffffffffffffffffffffffffffffffffffffffffffffffffffffffff19161461222057836040517f64a0ae920000000000000000000000000000000000000000000000000000000081526004016122179190612b3f565b60405180910390fd5b505b50505050565b606060405180602001604052806000815250905090565b60606000600161224e846125f1565b01905060008167ffffffffffffffff81111561226d5761226c612dc6565b5b6040519080825280601f01601f19166020018201604052801561229f5781602001600182028036833780820191505090505b509050600082602001820190505b600115612302578080600190039150507f3031323334353637383961626364656600000000000000000000000000000000600a86061a8153600a85816122f6576122f561339e565b5b049450600085036122ad575b819350505050919050565b612327828260405180602001604052806000815250612744565b5050565b60006002600083815260200190815260200160002060009054906101000a900473ffffffffffffffffffffffffffffffffffffffff169050919050565b80806123a15750600073ffffffffffffffffffffffffffffffffffffffff168273ffffffffffffffffffffffffffffffffffffffff1614155b156124d55760006123b184611b45565b9050600073ffffffffffffffffffffffffffffffffffffffff168373ffffffffffffffffffffffffffffffffffffffff161415801561241c57508273ffffffffffffffffffffffffffffffffffffffff168173ffffffffffffffffffffffffffffffffffffffff1614155b801561242f575061242d8184611870565b155b1561247157826040517fa9fbf51f0000000000000000000000000000000000000000000000000000000081526004016124689190612b3f565b60405180910390fd5b81156124d357838573ffffffffffffffffffffffffffffffffffffffff168273ffffffffffffffffffffffffffffffffffffffff167f8c5be1e5ebec7d5bd14f71427d1e84f3dd0314c0f7b2291e5b200ac8c7c3b92560405160405180910390a45b505b836004600085815260200190815260200160002060006101000a81548173ffffffffffffffffffffffffffffffffffffffff021916908373ffffffffffffffffffffffffffffffffffffffff16021790555050505050565b612538838383612760565b6125ec57600073ffffffffffffffffffffffffffffffffffffffff168373ffffffffffffffffffffffffffffffffffffffff16036125ad57806040517f7e2732890000000000000000000000000000000000000000000000000000000081526004016125a49190612d08565b60405180910390fd5b81816040517f177e802f0000000000000000000000000000000000000000000000000000000081526004016125e392919061376c565b60405180910390fd5b505050565b600080600090507a184f03e93ff9f4daa797ed6e38ed64bf6a1f010000000000000000831061264f577a184f03e93ff9f4daa797ed6e38ed64bf6a1f01000000000000000083816126455761264461339e565b5b0492506040810190505b6d04ee2d6d415b85acef8100000000831061268c576d04ee2d6d415b85acef810000000083816126825761268161339e565b5b0492506020810190505b662386f26fc1000083106126bb57662386f26fc1000083816126b1576126b061339e565b5b0492506010810190505b6305f5e10083106126e4576305f5e10083816126da576126d961339e565b5b0492506008810190505b61271083106127095761271083816126ff576126fe61339e565b5b0492506004810190505b6064831061272c57606483816127225761272161339e565b5b0492506002810190505b600a831061273b576001810190505b80915050919050565b61274e8383612821565b61275b6000848484612071565b505050565b60008073ffffffffffffffffffffffffffffffffffffffff168373ffffffffffffffffffffffffffffffffffffffff161415801561281857508273ffffffffffffffffffffffffffffffffffffffff168473ffffffffffffffffffffffffffffffffffffffff1614806127d957506127d88484611870565b5b8061281757508273ffffffffffffffffffffffffffffffffffffffff166127ff83611bcd565b73ffffffffffffffffffffffffffffffffffffffff16145b5b90509392505050565b600073ffffffffffffffffffffffffffffffffffffffff168273ffffffffffffffffffffffffffffffffffffffff16036128935760006040517f64a0ae9200000000000000000000000000000000000000000000000000000000815260040161288a9190612b3f565b60405180910390fd5b60006128a183836000611ce8565b9050600073ffffffffffffffffffffffffffffffffffffffff168173ffffffffffffffffffffffffffffffffffffffff16146129155760006040517f73c6ac6e00000000000000000000000000000000000000000000000000000000815260040161290c9190612b3f565b60405180910390fd5b505050565b6000604051905090565b600080fd5b600080fd5b60007fffffffff0000000000000000000000000000000000000000000000000000000082169050919050565b6129638161292e565b811461296e57600080fd5b50565b6000813590506129808161295a565b92915050565b60006020828403121561299c5761299b612924565b5b60006129aa84828501612971565b91505092915050565b60008115159050919050565b6129c8816129b3565b82525050565b60006020820190506129e360008301846129bf565b92915050565b600081519050919050565b600082825260208201905092915050565b60005b83811015612a23578082015181840152602081019050612a08565b60008484015250505050565b6000601f19601f8301169050919050565b6000612a4b826129e9565b612a5581856129f4565b9350612a65818560208601612a05565b612a6e81612a2f565b840191505092915050565b60006020820190508181036000830152612a938184612a40565b905092915050565b6000819050919050565b612aae81612a9b565b8114612ab957600080fd5b50565b600081359050612acb81612aa5565b92915050565b600060208284031215612ae757612ae6612924565b5b6000612af584828501612abc565b91505092915050565b600073ffffffffffffffffffffffffffffffffffffffff82169050919050565b6000612b2982612afe565b9050919050565b612b3981612b1e565b82525050565b6000602082019050612b546000830184612b30565b92915050565b612b6381612b1e565b8114612b6e57600080fd5b50565b600081359050612b8081612b5a565b92915050565b60008060408385031215612b9d57612b9c612924565b5b6000612bab85828601612b71565b9250506020612bbc85828601612abc565b9150509250929050565b600081519050919050565b600082825260208201905092915050565b6000819050602082019050919050565b612bfb81612a9b565b82525050565b6000612c0d8383612bf2565b60208301905092915050565b6000602082019050919050565b6000612c3182612bc6565b612c3b8185612bd1565b9350612c4683612be2565b8060005b83811015612c77578151612c5e8882612c01565b9750612c6983612c19565b925050600181019050612c4a565b5085935050505092915050565b60006020820190508181036000830152612c9e8184612c26565b905092915050565b600080600060608486031215612cbf57612cbe612924565b5b6000612ccd86828701612b71565b9350506020612cde86828701612b71565b9250506040612cef86828701612abc565b9150509250925092565b612d0281612a9b565b82525050565b6000602082019050612d1d6000830184612cf9565b92915050565b600060208284031215612d3957612d38612924565b5b6000612d4784828501612b71565b91505092915050565b612d59816129b3565b8114612d6457600080fd5b50565b600081359050612d7681612d50565b92915050565b60008060408385031215612d9357612d92612924565b5b6000612da185828601612b71565b9250506020612db285828601612d67565b9150509250929050565b600080fd5b600080fd5b7f4e487b7100000000000000000000000000000000000000000000000000000000600052604160045260246000fd5b612dfe82612a2f565b810181811067ffffffffffffffff82111715612e1d57612e1c612dc6565b5b80604052505050565b6000612e3061291a565b9050612e3c8282612df5565b919050565b600067ffffffffffffffff821115612e5c57612e5b612dc6565b5b612e6582612a2f565b9050602081019050919050565b82818337600083830152505050565b6000612e94612e8f84612e41565b612e26565b905082815260208101848484011115612eb057612eaf612dc1565b5b612ebb848285612e72565b509392505050565b600082601f830112612ed857612ed7612dbc565b5b8135612ee8848260208601612e81565b91505092915050565b60008060008060808587031215612f0b57612f0a612924565b5b6000612f1987828801612b71565b9450506020612f2a87828801612b71565b9350506040612f3b87828801612abc565b925050606085013567ffffffffffffffff811115612f5c57612f5b612929565b5b612f6887828801612ec3565b91505092959194509250565b6000819050919050565b6000612f99612f94612f8f84612afe565b612f74565b612afe565b9050919050565b6000612fab82612f7e565b9050919050565b6000612fbd82612fa0565b9050919050565b612fcd81612fb2565b82525050565b6000602082019050612fe86000830184612fc4565b92915050565b6000806040838503121561300557613004612924565b5b600061301385828601612abc565b925050602061302485828601612abc565b9150509250929050565b6000806040838503121561304557613044612924565b5b600061305385828601612b71565b925050602061306485828601612b71565b9150509250929050565b60006080820190506130836000830187612b30565b6130906020830186612b30565b61309d6040830185612cf9565b6130aa60608301846129bf565b95945050505050565b7f4e487b7100000000000000000000000000000000000000000000000000000000600052602260045260246000fd5b600060028204905060018216806130fa57607f821691505b60208210810361310d5761310c6130b3565b5b50919050565b7f596f752061726520746865206f776e6572206f66207468697320636172000000600082015250565b6000613149601d836129f4565b915061315482613113565b602082019050919050565b600060208201905081810360008301526131788161313c565b9050919050565b7f4361722068617320616c7265616479206265656e2072657475726e6564000000600082015250565b60006131b5601d836129f4565b91506131c08261317f565b602082019050919050565b600060208201905081810360008301526131e4816131a8565b9050919050565b60006060820190506132006000830186612b30565b61320d6020830185612cf9565b61321a6040830184612b30565b949350505050565b7f4e487b7100000000000000000000000000000000000000000000000000000000600052603260045260246000fd5b7f4e487b7100000000000000000000000000000000000000000000000000000000600052601160045260246000fd5b600061328b82612a9b565b91507fffffffffffffffffffffffffffffffffffffffffffffffffffffffffffffffff82036132bd576132bc613251565b5b600182019050919050565b6000815190506132d781612aa5565b92915050565b6000602082840312156132f3576132f2612924565b5b6000613301848285016132c8565b91505092915050565b600081905092915050565b6000613320826129e9565b61332a818561330a565b935061333a818560208601612a05565b80840191505092915050565b60006133528285613315565b915061335e8284613315565b91508190509392505050565b600061337582612a9b565b915061338083612a9b565b925082820390508181111561339857613397613251565b5b92915050565b7f4e487b7100000000000000000000000000000000000000000000000000000000600052601260045260246000fd5b60006133d882612a9b565b91506133e383612a9b565b9250826133f3576133f261339e565b5b828206905092915050565b600061340982612a9b565b915061341483612a9b565b925082820190508082111561342c5761342b613251565b5b92915050565b7f436172206973206e6f7420617661696c61626c6520666f7220626f72726f776960008201527f6e67000000000000000000000000000000000000000000000000000000000000602082015250565b600061348e6022836129f4565b915061349982613432565b604082019050919050565b600060208201905081810360008301526134bd81613481565b9050919050565b7f596f75722062616c616e636520697320696e73756666696369656e7400000000600082015250565b60006134fa601c836129f4565b9150613505826134c4565b602082019050919050565b60006020820190508181036000830152613529816134ed565b9050919050565b60006060820190506135456000830186612b30565b6135526020830185612b30565b61355f6040830184612cf9565b949350505050565b60008151905061357681612d50565b92915050565b60006020828403121561359257613591612924565b5b60006135a084828501613567565b91505092915050565b60006080820190506135be6000830187612cf9565b6135cb6020830186612b30565b6135d86040830185612cf9565b6135e56060830184612cf9565b95945050505050565b7f5468652063617220686173206e6f74206265656e2072657475726e6564000000600082015250565b6000613624601d836129f4565b915061362f826135ee565b602082019050919050565b6000602082019050818103600083015261365381613617565b9050919050565b7f4e487b7100000000000000000000000000000000000000000000000000000000600052603160045260246000fd5b600081519050919050565b600082825260208201905092915050565b60006136b082613689565b6136ba8185613694565b93506136ca818560208601612a05565b6136d381612a2f565b840191505092915050565b60006080820190506136f36000830187612b30565b6137006020830186612b30565b61370d6040830185612cf9565b818103606083015261371f81846136a5565b905095945050505050565b6000815190506137398161295a565b92915050565b60006020828403121561375557613754612924565b5b60006137638482850161372a565b91505092915050565b60006040820190506137816000830185612b30565b61378e6020830184612cf9565b939250505056fea2646970667358221220da66498f6b5bb38f0a4e8bc41d9c3dd8ce9263da2eca1db045965a2ad6be687264736f6c63430008140033",
  "linkReferences": {},
  "deployedLinkReferences": {}
}