{
  "_format": "hh-sol-artifact-1",
  "contractName": "Geo",
  "sourceName": "contracts/token.sol",
  "abi": [
    {
      "inputs": [],
      "stateMutability": "nonpayable",
      "type": "constructor"
    },
    {
      "inputs": [
        {
          "internalType": "address",
          "name": "spender",
          "type": "address"
        },
        {
          "internalType": "uint256",
          "name": "allowance",
          "type": "uint256"
        },
        {
          "internalType": "uint256",
          "name": "needed",
          "type": "uint256"
        }
      ],
      "name": "ERC20InsufficientAllowance",
      "type": "error"
    },
    {
      "inputs": [
        {
          "internalType": "address",
          "name": "sender",
          "type": "address"
        },
        {
          "internalType": "uint256",
          "name": "balance",
          "type": "uint256"
        },
        {
          "internalType": "uint256",
          "name": "needed",
          "type": "uint256"
        }
      ],
      "name": "ERC20InsufficientBalance",
      "type": "error"
    },
    {
      "inputs": [
        {
          "internalType": "address",
          "name": "approver",
          "type": "address"
        }
      ],
      "name": "ERC20InvalidApprover",
      "type": "error"
    },
    {
      "inputs": [
        {
          "internalType": "address",
          "name": "receiver",
          "type": "address"
        }
      ],
      "name": "ERC20InvalidReceiver",
      "type": "error"
    },
    {
      "inputs": [
        {
          "internalType": "address",
          "name": "sender",
          "type": "address"
        }
      ],
      "name": "ERC20InvalidSender",
      "type": "error"
    },
    {
      "inputs": [
        {
          "internalType": "address",
          "name": "spender",
          "type": "address"
        }
      ],
      "name": "ERC20InvalidSpender",
      "type": "error"
    },
    {
      "anonymous": false,
      "inputs": [
        {
          "indexed": true,
          "internalType": "address",
          "name": "owner",
          "type": "address"
        },
        {
          "indexed": true,
          "internalType": "address",
          "name": "spender",
          "type": "address"
        },
        {
          "indexed": false,
          "internalType": "uint256",
          "name": "value",
          "type": "uint256"
        }
      ],
      "name": "Approval",
      "type": "event"
    },
    {
      "anonymous": false,
      "inputs": [
        {
          "indexed": true,
          "internalType": "address",
          "name": "from",
          "type": "address"
        },
        {
          "indexed": true,
          "internalType": "address",
          "name": "to",
          "type": "address"
        },
        {
          "indexed": false,
          "internalType": "uint256",
          "name": "value",
          "type": "uint256"
        }
      ],
      "name": "Transfer",
      "type": "event"
    },
    {
      "inputs": [],
      "name": "airdrop",
      "outputs": [],
      "stateMutability": "nonpayable",
      "type": "function"
    },
    {
      "inputs": [
        {
          "internalType": "address",
          "name": "owner",
          "type": "address"
        },
        {
          "internalType": "address",
          "name": "spender",
          "type": "address"
        }
      ],
      "name": "allowance",
      "outputs": [
        {
          "internalType": "uint256",
          "name": "",
          "type": "uint256"
        }
      ],
      "stateMutability": "view",
      "type": "function"
    },
    {
      "inputs": [
        {
          "internalType": "address",
          "name": "spender",
          "type": "address"
        },
        {
          "internalType": "uint256",
          "name": "value",
          "type": "uint256"
        }
      ],
      "name": "approve",
      "outputs": [
        {
          "internalType": "bool",
          "name": "",
          "type": "bool"
        }
      ],
      "stateMutability": "nonpayable",
      "type": "function"
    },
    {
      "inputs": [
        {
          "internalType": "address",
          "name": "account",
          "type": "address"
        }
      ],
      "name": "balanceOf",
      "outputs": [
        {
          "internalType": "uint256",
          "name": "",
          "type": "uint256"
        }
      ],
      "stateMutability": "view",
      "type": "function"
    },
    {
      "inputs": [
        {
          "internalType": "address",
          "name": "target",
          "type": "address"
        }
      ],
      "name": "create",
      "outputs": [],
      "stateMutability": "nonpayable",
      "type": "function"
    },
    {
      "inputs": [],
      "name": "decimals",
      "outputs": [
        {
          "internalType": "uint8",
          "name": "",
          "type": "uint8"
        }
      ],
      "stateMutability": "view",
      "type": "function"
    },
    {
      "inputs": [],
      "name": "name",
      "outputs": [
        {
          "internalType": "string",
          "name": "",
          "type": "string"
        }
      ],
      "stateMutability": "view",
      "type": "function"
    },
    {
      "inputs": [],
      "name": "symbol",
      "outputs": [
        {
          "internalType": "string",
          "name": "",
          "type": "string"
        }
      ],
      "stateMutability": "view",
      "type": "function"
    },
    {
      "inputs": [],
      "name": "totalSupply",
      "outputs": [
        {
          "internalType": "uint256",
          "name": "",
          "type": "uint256"
        }
      ],
      "stateMutability": "view",
      "type": "function"
    },
    {
      "inputs": [
        {
          "internalType": "address",
          "name": "to",
          "type": "address"
        },
        {
          "internalType": "uint256",
          "name": "value",
          "type": "uint256"
        }
      ],
      "name": "transfer",
      "outputs": [
        {
          "internalType": "bool",
          "name": "",
          "type": "bool"
        }
      ],
      "stateMutability": "nonpayable",
      "type": "function"
    },
    {
      "inputs": [
        {
          "internalType": "address",
          "name": "from",
          "type": "address"
        },
        {
          "internalType": "address",
          "name": "to",
          "type": "address"
        },
        {
          "internalType": "uint256",
          "name": "value",
          "type": "uint256"
        }
      ],
      "name": "transferFrom",
      "outputs": [
        {
          "internalType": "bool",
          "name": "",
          "type": "bool"
        }
      ],
      "stateMutability": "nonpayable",
      "type": "function"
    }
  ],
  "bytecode": "0x60806040523480156200001157600080fd5b506040518060400160405280600381526020017f47656f00000000000000000000000000000000000000000000000000000000008152506040518060400160405280600381526020017f47656f000000000000000000000000000000000000000000000000000000000081525081600390816200008f919062000324565b508060049081620000a1919062000324565b5050506200040b565b600081519050919050565b7f4e487b7100000000000000000000000000000000000000000000000000000000600052604160045260246000fd5b7f4e487b7100000000000000000000000000000000000000000000000000000000600052602260045260246000fd5b600060028204905060018216806200012c57607f821691505b602082108103620001425762000141620000e4565b5b50919050565b60008190508160005260206000209050919050565b60006020601f8301049050919050565b600082821b905092915050565b600060088302620001ac7fffffffffffffffffffffffffffffffffffffffffffffffffffffffffffffffff826200016d565b620001b886836200016d565b95508019841693508086168417925050509392505050565b6000819050919050565b6000819050919050565b600062000205620001ff620001f984620001d0565b620001da565b620001d0565b9050919050565b6000819050919050565b6200022183620001e4565b6200023962000230826200020c565b8484546200017a565b825550505050565b600090565b6200025062000241565b6200025d81848462000216565b505050565b5b8181101562000285576200027960008262000246565b60018101905062000263565b5050565b601f821115620002d4576200029e8162000148565b620002a9846200015d565b81016020851015620002b9578190505b620002d1620002c8856200015d565b83018262000262565b50505b505050565b600082821c905092915050565b6000620002f960001984600802620002d9565b1980831691505092915050565b6000620003148383620002e6565b9150826002028217905092915050565b6200032f82620000aa565b67ffffffffffffffff8111156200034b576200034a620000b5565b5b62000357825462000113565b6200036482828562000289565b600060209050601f8311600181146200039c576000841562000387578287015190505b62000393858262000306565b86555062000403565b601f198416620003ac8662000148565b60005b82811015620003d657848901518255600182019150602085019450602081019050620003af565b86831015620003f65784890151620003f2601f891682620002e6565b8355505b6001600288020188555050505b505050505050565b61119a806200041b6000396000f3fe608060405234801561001057600080fd5b50600436106100a95760003560e01c80633884d635116100715780633884d6351461016857806370a082311461017257806395d89b41146101a25780639ed93318146101c0578063a9059cbb146101dc578063dd62ed3e1461020c576100a9565b806306fdde03146100ae578063095ea7b3146100cc57806318160ddd146100fc57806323b872dd1461011a578063313ce5671461014a575b600080fd5b6100b661023c565b6040516100c39190610d5c565b60405180910390f35b6100e660048036038101906100e19190610e17565b6102ce565b6040516100f39190610e72565b60405180910390f35b6101046102f1565b6040516101119190610e9c565b60405180910390f35b610134600480360381019061012f9190610eb7565b6102fb565b6040516101419190610e72565b60405180910390f35b61015261032a565b60405161015f9190610f26565b60405180910390f35b610170610333565b005b61018c60048036038101906101879190610f41565b61042d565b6040516101999190610e9c565b60405180910390f35b6101aa610475565b6040516101b79190610d5c565b60405180910390f35b6101da60048036038101906101d59190610f41565b610507565b005b6101f660048036038101906101f19190610e17565b610602565b6040516102039190610e72565b60405180910390f35b61022660048036038101906102219190610f6e565b610625565b6040516102339190610e9c565b60405180910390f35b60606003805461024b90610fdd565b80601f016020809104026020016040519081016040528092919081815260200182805461027790610fdd565b80156102c45780601f10610299576101008083540402835291602001916102c4565b820191906000526020600020905b8154815290600101906020018083116102a757829003601f168201915b5050505050905090565b6000806102d96106ac565b90506102e68185856106b4565b600191505092915050565b6000600254905090565b6000806103066106ac565b90506103138582856106c6565b61031e85858561075a565b60019150509392505050565b60006012905090565b60001515600560003373ffffffffffffffffffffffffffffffffffffffff1673ffffffffffffffffffffffffffffffffffffffff16815260200190815260200160002060009054906101000a900460ff161515146103c6576040517f08c379a00000000000000000000000000000000000000000000000000000000081526004016103bd90611080565b60405180910390fd5b6103d333620186a061084e565b6001600560003373ffffffffffffffffffffffffffffffffffffffff1673ffffffffffffffffffffffffffffffffffffffff16815260200190815260200160002060006101000a81548160ff021916908315150217905550565b60008060008373ffffffffffffffffffffffffffffffffffffffff1673ffffffffffffffffffffffffffffffffffffffff168152602001908152602001600020549050919050565b60606004805461048490610fdd565b80601f01602080910402602001604051908101604052809291908181526020018280546104b090610fdd565b80156104fd5780601f106104d2576101008083540402835291602001916104fd565b820191906000526020600020905b8154815290600101906020018083116104e057829003601f168201915b5050505050905090565b60001515600560008373ffffffffffffffffffffffffffffffffffffffff1673ffffffffffffffffffffffffffffffffffffffff16815260200190815260200160002060009054906101000a900460ff1615151461059a576040517f08c379a000000000000000000000000000000000000000000000000000000000815260040161059190611080565b60405180910390fd5b6105a781620186a061084e565b6001600560008373ffffffffffffffffffffffffffffffffffffffff1673ffffffffffffffffffffffffffffffffffffffff16815260200190815260200160002060006101000a81548160ff02191690831515021790555050565b60008061060d6106ac565b905061061a81858561075a565b600191505092915050565b6000600160008473ffffffffffffffffffffffffffffffffffffffff1673ffffffffffffffffffffffffffffffffffffffff16815260200190815260200160002060008373ffffffffffffffffffffffffffffffffffffffff1673ffffffffffffffffffffffffffffffffffffffff16815260200190815260200160002054905092915050565b600033905090565b6106c183838360016108d0565b505050565b60006106d28484610625565b90507fffffffffffffffffffffffffffffffffffffffffffffffffffffffffffffffff81146107545781811015610744578281836040517ffb8f41b200000000000000000000000000000000000000000000000000000000815260040161073b939291906110af565b60405180910390fd5b610753848484840360006108d0565b5b50505050565b600073ffffffffffffffffffffffffffffffffffffffff168373ffffffffffffffffffffffffffffffffffffffff16036107cc5760006040517f96c6fd1e0000000000000000000000000000000000000000000000000000000081526004016107c391906110e6565b60405180910390fd5b600073ffffffffffffffffffffffffffffffffffffffff168273ffffffffffffffffffffffffffffffffffffffff160361083e5760006040517fec442f0500000000000000000000000000000000000000000000000000000000815260040161083591906110e6565b60405180910390fd5b610849838383610aa7565b505050565b600073ffffffffffffffffffffffffffffffffffffffff168273ffffffffffffffffffffffffffffffffffffffff16036108c05760006040517fec442f050000000000000000000000000000000000000000000000000000000081526004016108b791906110e6565b60405180910390fd5b6108cc60008383610aa7565b5050565b600073ffffffffffffffffffffffffffffffffffffffff168473ffffffffffffffffffffffffffffffffffffffff16036109425760006040517fe602df0500000000000000000000000000000000000000000000000000000000815260040161093991906110e6565b60405180910390fd5b600073ffffffffffffffffffffffffffffffffffffffff168373ffffffffffffffffffffffffffffffffffffffff16036109b45760006040517f94280d620000000000000000000000000000000000000000000000000000000081526004016109ab91906110e6565b60405180910390fd5b81600160008673ffffffffffffffffffffffffffffffffffffffff1673ffffffffffffffffffffffffffffffffffffffff16815260200190815260200160002060008573ffffffffffffffffffffffffffffffffffffffff1673ffffffffffffffffffffffffffffffffffffffff168152602001908152602001600020819055508015610aa1578273ffffffffffffffffffffffffffffffffffffffff168473ffffffffffffffffffffffffffffffffffffffff167f8c5be1e5ebec7d5bd14f71427d1e84f3dd0314c0f7b2291e5b200ac8c7c3b92584604051610a989190610e9c565b60405180910390a35b50505050565b600073ffffffffffffffffffffffffffffffffffffffff168373ffffffffffffffffffffffffffffffffffffffff1603610af9578060026000828254610aed9190611130565b92505081905550610bcc565b60008060008573ffffffffffffffffffffffffffffffffffffffff1673ffffffffffffffffffffffffffffffffffffffff16815260200190815260200160002054905081811015610b85578381836040517fe450d38c000000000000000000000000000000000000000000000000000000008152600401610b7c939291906110af565b60405180910390fd5b8181036000808673ffffffffffffffffffffffffffffffffffffffff1673ffffffffffffffffffffffffffffffffffffffff16815260200190815260200160002081905550505b600073ffffffffffffffffffffffffffffffffffffffff168273ffffffffffffffffffffffffffffffffffffffff1603610c155780600260008282540392505081905550610c62565b806000808473ffffffffffffffffffffffffffffffffffffffff1673ffffffffffffffffffffffffffffffffffffffff168152602001908152602001600020600082825401925050819055505b8173ffffffffffffffffffffffffffffffffffffffff168373ffffffffffffffffffffffffffffffffffffffff167fddf252ad1be2c89b69c2b068fc378daa952ba7f163c4a11628f55a4df523b3ef83604051610cbf9190610e9c565b60405180910390a3505050565b600081519050919050565b600082825260208201905092915050565b60005b83811015610d06578082015181840152602081019050610ceb565b60008484015250505050565b6000601f19601f8301169050919050565b6000610d2e82610ccc565b610d388185610cd7565b9350610d48818560208601610ce8565b610d5181610d12565b840191505092915050565b60006020820190508181036000830152610d768184610d23565b905092915050565b600080fd5b600073ffffffffffffffffffffffffffffffffffffffff82169050919050565b6000610dae82610d83565b9050919050565b610dbe81610da3565b8114610dc957600080fd5b50565b600081359050610ddb81610db5565b92915050565b6000819050919050565b610df481610de1565b8114610dff57600080fd5b50565b600081359050610e1181610deb565b92915050565b60008060408385031215610e2e57610e2d610d7e565b5b6000610e3c85828601610dcc565b9250506020610e4d85828601610e02565b9150509250929050565b60008115159050919050565b610e6c81610e57565b82525050565b6000602082019050610e876000830184610e63565b92915050565b610e9681610de1565b82525050565b6000602082019050610eb16000830184610e8d565b92915050565b600080600060608486031215610ed057610ecf610d7e565b5b6000610ede86828701610dcc565b9350506020610eef86828701610dcc565b9250506040610f0086828701610e02565b9150509250925092565b600060ff82169050919050565b610f2081610f0a565b82525050565b6000602082019050610f3b6000830184610f17565b92915050565b600060208284031215610f5757610f56610d7e565b5b6000610f6584828501610dcc565b91505092915050565b60008060408385031215610f8557610f84610d7e565b5b6000610f9385828601610dcc565b9250506020610fa485828601610dcc565b9150509250929050565b7f4e487b7100000000000000000000000000000000000000000000000000000000600052602260045260246000fd5b60006002820490506001821680610ff557607f821691505b60208210810361100857611007610fae565b5b50919050565b7f47656f3a205468697320757365722068617320636c61696d656420616972647260008201527f6f7020616c726561647900000000000000000000000000000000000000000000602082015250565b600061106a602a83610cd7565b91506110758261100e565b604082019050919050565b600060208201905081810360008301526110998161105d565b9050919050565b6110a981610da3565b82525050565b60006060820190506110c460008301866110a0565b6110d16020830185610e8d565b6110de6040830184610e8d565b949350505050565b60006020820190506110fb60008301846110a0565b92915050565b7f4e487b7100000000000000000000000000000000000000000000000000000000600052601160045260246000fd5b600061113b82610de1565b915061114683610de1565b925082820190508082111561115e5761115d611101565b5b9291505056fea264697066735822122050c37d812e0356e5cf988b83c278d4c933d6c7e29f35b5b41b1ae7e9fb98e78764736f6c63430008140033",
  "linkReferences": {},
  "deployedLinkReferences": {}
}